{
  "_format": "hh-sol-artifact-1",
  "contractName": "NFTMarket",
  "sourceName": "contracts/Market.sol",
  "abi": [
    {
      "inputs": [
        {
          "internalType": "contract IERC20",
          "name": "token",
          "type": "address"
        }
      ],
      "stateMutability": "nonpayable",
      "type": "constructor"
    },
    {
      "anonymous": false,
      "inputs": [
        {
          "indexed": true,
          "internalType": "uint256",
          "name": "itemId",
          "type": "uint256"
        },
        {
          "indexed": true,
          "internalType": "address",
          "name": "nftContract",
          "type": "address"
        },
        {
          "indexed": true,
          "internalType": "uint256",
          "name": "tokenId",
          "type": "uint256"
        },
        {
          "indexed": false,
          "internalType": "address",
          "name": "seller",
          "type": "address"
        },
        {
          "indexed": false,
          "internalType": "address",
          "name": "owner",
          "type": "address"
        },
        {
          "indexed": false,
          "internalType": "uint256",
          "name": "price",
          "type": "uint256"
        },
        {
          "indexed": false,
          "internalType": "bool",
          "name": "sold",
          "type": "bool"
        }
      ],
      "name": "MarketItemCreated",
      "type": "event"
    },
    {
      "inputs": [
        {
          "internalType": "address",
          "name": "nftContract",
          "type": "address"
        },
        {
          "internalType": "uint256",
          "name": "tokenId",
          "type": "uint256"
        },
        {
          "internalType": "uint256",
          "name": "price",
          "type": "uint256"
        }
      ],
      "name": "createMarketItem",
      "outputs": [],
      "stateMutability": "payable",
      "type": "function"
    },
    {
      "inputs": [
        {
          "internalType": "address",
          "name": "nftContract",
          "type": "address"
        },
        {
          "internalType": "uint256",
          "name": "itemId",
          "type": "uint256"
        }
      ],
      "name": "createMarketSale",
      "outputs": [],
      "stateMutability": "payable",
      "type": "function"
    },
    {
      "inputs": [
        {
          "internalType": "address",
          "name": "nftContract",
          "type": "address"
        },
        {
          "internalType": "address",
          "name": "mytokenContract",
          "type": "address"
        },
        {
          "internalType": "uint256",
          "name": "itemId",
          "type": "uint256"
        },
        {
          "internalType": "uint256",
          "name": "msgValue",
          "type": "uint256"
        }
      ],
      "name": "createMarketSale_MyToken",
      "outputs": [],
      "stateMutability": "nonpayable",
      "type": "function"
    },
    {
      "inputs": [],
      "name": "fetchItemsCreated",
      "outputs": [
        {
          "components": [
            {
              "internalType": "uint256",
              "name": "itemId",
              "type": "uint256"
            },
            {
              "internalType": "address",
              "name": "nftContract",
              "type": "address"
            },
            {
              "internalType": "uint256",
              "name": "tokenId",
              "type": "uint256"
            },
            {
              "internalType": "address payable",
              "name": "seller",
              "type": "address"
            },
            {
              "internalType": "address payable",
              "name": "owner",
              "type": "address"
            },
            {
              "internalType": "uint256",
              "name": "price",
              "type": "uint256"
            },
            {
              "internalType": "bool",
              "name": "sold",
              "type": "bool"
            }
          ],
          "internalType": "struct NFTMarket.MarketItem[]",
          "name": "",
          "type": "tuple[]"
        }
      ],
      "stateMutability": "view",
      "type": "function"
    },
    {
      "inputs": [],
      "name": "fetchMarketItems",
      "outputs": [
        {
          "components": [
            {
              "internalType": "uint256",
              "name": "itemId",
              "type": "uint256"
            },
            {
              "internalType": "address",
              "name": "nftContract",
              "type": "address"
            },
            {
              "internalType": "uint256",
              "name": "tokenId",
              "type": "uint256"
            },
            {
              "internalType": "address payable",
              "name": "seller",
              "type": "address"
            },
            {
              "internalType": "address payable",
              "name": "owner",
              "type": "address"
            },
            {
              "internalType": "uint256",
              "name": "price",
              "type": "uint256"
            },
            {
              "internalType": "bool",
              "name": "sold",
              "type": "bool"
            }
          ],
          "internalType": "struct NFTMarket.MarketItem[]",
          "name": "",
          "type": "tuple[]"
        }
      ],
      "stateMutability": "view",
      "type": "function"
    },
    {
      "inputs": [],
      "name": "fetchMyNFTs",
      "outputs": [
        {
          "components": [
            {
              "internalType": "uint256",
              "name": "itemId",
              "type": "uint256"
            },
            {
              "internalType": "address",
              "name": "nftContract",
              "type": "address"
            },
            {
              "internalType": "uint256",
              "name": "tokenId",
              "type": "uint256"
            },
            {
              "internalType": "address payable",
              "name": "seller",
              "type": "address"
            },
            {
              "internalType": "address payable",
              "name": "owner",
              "type": "address"
            },
            {
              "internalType": "uint256",
              "name": "price",
              "type": "uint256"
            },
            {
              "internalType": "bool",
              "name": "sold",
              "type": "bool"
            }
          ],
          "internalType": "struct NFTMarket.MarketItem[]",
          "name": "",
          "type": "tuple[]"
        }
      ],
      "stateMutability": "view",
      "type": "function"
    },
    {
      "inputs": [],
      "name": "getListingPrice",
      "outputs": [
        {
          "internalType": "uint256",
          "name": "",
          "type": "uint256"
        }
      ],
      "stateMutability": "view",
      "type": "function"
    }
  ],
  "bytecode": "0x60806040526658d15e1762800060045534801561001b57600080fd5b506040516114e63803806114e683398101604081905261003a91610072565b600160005560038054336001600160a01b031991821617909155600580549091166001600160a01b03929092169190911790556100a0565b600060208284031215610083578081fd5b81516001600160a01b0381168114610099578182fd5b9392505050565b611437806100af6000396000f3fe6080604052600436106100705760003560e01c806324b659cf1161004e57806324b659cf146100d357806358eb2df5146100f5578063c23b139e14610108578063f064c32e1461011b57600080fd5b80630f08efe01461007557806312e85585146100a0578063202e3740146100be575b600080fd5b34801561008157600080fd5b5061008a610130565b6040516100979190611263565b60405180910390f35b3480156100ac57600080fd5b50600454604051908152602001610097565b3480156100ca57600080fd5b5061008a6102d8565b3480156100df57600080fd5b506100f36100ee366004611119565b6104be565b005b6100f3610103366004611183565b61091e565b6100f361011636600461115a565b610c71565b34801561012757600080fd5b5061008a610e30565b6060600061013d60015490565b9050600061014a60025490565b60015461015791906113b9565b90506000808267ffffffffffffffff81111561018357634e487b7160e01b600052604160045260246000fd5b6040519080825280602002602001820160405280156101bc57816020015b6101a96110c1565b8152602001906001900390816101a15790505b50905060005b848110156102cf5760006006816101da8460016113a1565b81526020810191909152604001600020600401546001600160a01b031614156102bd57600061020a8260016113a1565b600081815260066020818152604092839020835160e0810185528154815260018201546001600160a01b039081169382019390935260028201549481019490945260038101548216606085015260048101549091166080840152600581015460a08401529081015460ff16151560c08301528551929350918590879081106102a257634e487b7160e01b600052603260045260246000fd5b60209081029190910101526102b86001866113a1565b945050505b806102c7816113d0565b9150506101c2565b50949350505050565b606060006102e560015490565b905060008060005b838110156103485733600660006103058460016113a1565b81526020810191909152604001600020600401546001600160a01b03161415610336576103336001846113a1565b92505b80610340816113d0565b9150506102ed565b5060008267ffffffffffffffff81111561037257634e487b7160e01b600052604160045260246000fd5b6040519080825280602002602001820160405280156103ab57816020015b6103986110c1565b8152602001906001900390816103905790505b50905060005b848110156102cf5733600660006103c98460016113a1565b81526020810191909152604001600020600401546001600160a01b031614156104ac5760006103f98260016113a1565b600081815260066020818152604092839020835160e0810185528154815260018201546001600160a01b039081169382019390935260028201549481019490945260038101548216606085015260048101549091166080840152600581015460a08401529081015460ff16151560c083015285519293509185908790811061049157634e487b7160e01b600052603260045260246000fd5b60209081029190910101526104a76001866113a1565b945050505b806104b6816113d0565b9150506103b1565b600082815260066020526040902060058101546002909101548282146104ff5760405162461bcd60e51b81526004016104f690611343565b60405180910390fd5b61053e6040518060400160405280601c81526020017f6d61726b65742073616c652061646472657373206974656d69643a200000000081525085611016565b6040805180820182526014815273036b0b935b2ba1039b0b6329039b2b63632b91d160651b60208083019190915260008781526006909152919091206003015461059191906001600160a01b031661105f565b6105d06040518060400160405280601a81526020017f6d61726b65742073616c65206164647265737320746869733a200000000000008152503061105f565b61060f6040518060400160405280601c81526020017f6d61726b65742073616c6520616464726573732073656e6465723a20000000008152503361105f565b604080518082018252601a81527f6d61726b65742073616c652062616c616e636520746869733a20000000000000602082015290516370a0823160e01b81523060048201526106c391906001600160a01b038816906370a08231906024015b60206040518083038186803b15801561068657600080fd5b505afa15801561069a573d6000803e3d6000fd5b505050506040513d601f19601f820116820180604052508101906106be91906111dc565b611016565b604080518082018252601c81527f6d61726b65742073616c652062616c616e63652073656e6465723a2000000000602082015290516370a0823160e01b815233600482015261072691906001600160a01b038816906370a082319060240161066e565b604080518082018252601c81527f6d61726b65742073616c652062616c616e63652073656c6c65723a2000000000602080830191909152600087815260069091528290206003015491516370a0823160e01b81526001600160a01b03928316600482015261079f928816906370a082319060240161066e565b6040516323b872dd60e01b81526001600160a01b038716906323b872dd906107cf9030903390869060040161123f565b600060405180830381600087803b1580156107e957600080fd5b505af11580156107fd573d6000803e3d6000fd5b505050600085815260066020526040908190206003015490516323b872dd60e01b81526001600160a01b0388811693506323b872dd9261084792339290911690879060040161123f565b602060405180830381600087803b15801561086157600080fd5b505af1158015610875573d6000803e3d6000fd5b505050506040513d601f19601f8201168201806040525081019061089991906111b5565b5060008481526006602081905260409091206004810180546001600160a01b0319163317905501805460ff191660011790556108d9600280546001019055565b6003546004546040516001600160a01b039092169181156108fc0291906000818181858888f19350505050158015610915573d6000803e3d6000fd5b50505050505050565b600260005414156109715760405162461bcd60e51b815260206004820152601f60248201527f5265656e7472616e637947756172643a207265656e7472616e742063616c6c0060448201526064016104f6565b6002600055806109c35760405162461bcd60e51b815260206004820152601c60248201527f5072696365206d757374206265206174206c656173742031207765690000000060448201526064016104f6565b6004543414610a205760405162461bcd60e51b8152602060048201526024808201527f5072696365206d75737420626520657175616c20746f206c697374696e6720706044820152637269636560e01b60648201526084016104f6565b610a2e600180546001019055565b6000610a3960015490565b9050610a6c6040518060400160405280600f81526020016e026b0b935b2ba1034ba32b6a4b21d1608d1b81525082611016565b6040805160e0810182528281526001600160a01b038681166020808401918252838501888152336060860181815260006080880181815260a089018c815260c08a018381528c84526006808952938c90209a518b55975160018b0180546001600160a01b0319908116928c16929092179055955160028b0155925160038a0180548716918a169190911790555160048901805490951697169690961790925590516005860155915193909201805460ff1916931515939093179092558251808401909352600f83526e036b0b935b2ba1039b2b63632b91d1608d1b90830152610b55919061105f565b610b866040518060400160405280600e81526020016d036b0b935b2ba1037bbb732b91d160951b815250600061105f565b610bad60405180604001604052806005815260200164707269636560d81b81525083611016565b6040516323b872dd60e01b81526001600160a01b038516906323b872dd90610bdd9033903090889060040161123f565b600060405180830381600087803b158015610bf757600080fd5b505af1158015610c0b573d6000803e3d6000fd5b505060408051338152600060208201819052818301879052606082015290518693506001600160a01b038816925084917f045dfa01dcba2b36aba1d3dc4a874f4b0c5d2fbeb8d2c4b34a7d88c8d8f929d1919081900360800190a4505060016000555050565b60026000541415610cc45760405162461bcd60e51b815260206004820152601f60248201527f5265656e7472616e637947756172643a207265656e7472616e742063616c6c0060448201526064016104f6565b600260008181558281526006602052604090206005810154910154348214610cfe5760405162461bcd60e51b81526004016104f690611343565b6000838152600660205260408082206003015490516001600160a01b03909116913480156108fc02929091818181858888f19350505050158015610d46573d6000803e3d6000fd5b506040516323b872dd60e01b81526001600160a01b038516906323b872dd90610d779030903390869060040161123f565b600060405180830381600087803b158015610d9157600080fd5b505af1158015610da5573d6000803e3d6000fd5b50505060008481526006602081905260409091206004810180546001600160a01b0319163317905501805460ff1916600117905550610de8600280546001019055565b6003546004546040516001600160a01b039092169181156108fc0291906000818181858888f19350505050158015610e24573d6000803e3d6000fd5b50506001600055505050565b60606000610e3d60015490565b905060008060005b83811015610ea0573360066000610e5d8460016113a1565b81526020810191909152604001600020600301546001600160a01b03161415610e8e57610e8b6001846113a1565b92505b80610e98816113d0565b915050610e45565b5060008267ffffffffffffffff811115610eca57634e487b7160e01b600052604160045260246000fd5b604051908082528060200260200182016040528015610f0357816020015b610ef06110c1565b815260200190600190039081610ee85790505b50905060005b848110156102cf573360066000610f218460016113a1565b81526020810191909152604001600020600301546001600160a01b03161415611004576000610f518260016113a1565b600081815260066020818152604092839020835160e0810185528154815260018201546001600160a01b039081169382019390935260028201549481019490945260038101548216606085015260048101549091166080840152600581015460a08401529081015460ff16151560c0830152855192935091859087908110610fe957634e487b7160e01b600052603260045260246000fd5b6020908102919091010152610fff6001866113a1565b945050505b8061100e816113d0565b915050610f09565b61105b828260405160240161102c929190611321565b60408051601f198184030181529190526020810180516001600160e01b03166309710a9d60e41b1790526110a0565b5050565b61105b82826040516024016110759291906112f7565b60408051601f198184030181529190526020810180516001600160e01b031663319af33360e01b1790525b80516a636f6e736f6c652e6c6f67602083016000808483855afa5050505050565b6040805160e081018252600080825260208201819052918101829052606081018290526080810182905260a0810182905260c081019190915290565b80356001600160a01b038116811461111457600080fd5b919050565b6000806000806080858703121561112e578384fd5b611137856110fd565b9350611145602086016110fd565b93969395505050506040820135916060013590565b6000806040838503121561116c578182fd5b611175836110fd565b946020939093013593505050565b600080600060608486031215611197578283fd5b6111a0846110fd565b95602085013595506040909401359392505050565b6000602082840312156111c6578081fd5b815180151581146111d5578182fd5b9392505050565b6000602082840312156111ed578081fd5b5051919050565b60008151808452815b81811015611219576020818501810151868301820152016111fd565b8181111561122a5782602083870101525b50601f01601f19169290920160200192915050565b6001600160a01b039384168152919092166020820152604081019190915260600190565b602080825282518282018190526000919060409081850190868401855b828110156112ea57815180518552868101516001600160a01b039081168887015286820151878701526060808301518216908701526080808301519091169086015260a0808201519086015260c09081015115159085015260e09093019290850190600101611280565b5091979650505050505050565b60408152600061130a60408301856111f4565b905060018060a01b03831660208301529392505050565b60408152600061133460408301856111f4565b90508260208301529392505050565b602080825260409082018190527f506c65617365207375626d6974207468652061736b696e672070726963652069908201527f6e206f7264657220746f20636f6d706c65746520746865207075726368617365606082015260800190565b600082198211156113b4576113b46113eb565b500190565b6000828210156113cb576113cb6113eb565b500390565b60006000198214156113e4576113e46113eb565b5060010190565b634e487b7160e01b600052601160045260246000fdfea2646970667358221220526cceb58225109221fb9439caed26aa56d07f04b38f32e31d8011096ac7422364736f6c63430008040033",
  "linkReferences": {},
  "deployedLinkReferences": {}
}