{
  "_format": "hh-sol-artifact-1",
  "contractName": "NFTMarket",
  "sourceName": "contracts/Market.sol",
  "abi": [
    {
      "inputs": [
        {
          "internalType": "contract IERC20",
          "name": "token",
          "type": "address"
        }
      ],
      "stateMutability": "nonpayable",
      "type": "constructor"
    },
    {
      "anonymous": false,
      "inputs": [
        {
          "indexed": true,
          "internalType": "uint256",
          "name": "itemId",
          "type": "uint256"
        },
        {
          "indexed": true,
          "internalType": "address",
          "name": "nftContract",
          "type": "address"
        },
        {
          "indexed": true,
          "internalType": "uint256",
          "name": "tokenId",
          "type": "uint256"
        },
        {
          "indexed": false,
          "internalType": "address",
          "name": "seller",
          "type": "address"
        },
        {
          "indexed": false,
          "internalType": "address",
          "name": "owner",
          "type": "address"
        },
        {
          "indexed": false,
          "internalType": "uint256",
          "name": "price",
          "type": "uint256"
        },
        {
          "indexed": false,
          "internalType": "bool",
          "name": "sold",
          "type": "bool"
        }
      ],
      "name": "MarketItemCreated",
      "type": "event"
    },
    {
      "inputs": [
        {
          "internalType": "address",
          "name": "nftContract",
          "type": "address"
        },
        {
          "internalType": "uint256",
          "name": "tokenId",
          "type": "uint256"
        },
        {
          "internalType": "uint256",
          "name": "price",
          "type": "uint256"
        }
      ],
      "name": "createMarketItem",
      "outputs": [],
      "stateMutability": "payable",
      "type": "function"
    },
    {
      "inputs": [
        {
          "internalType": "address",
          "name": "nftContract",
          "type": "address"
        },
        {
          "internalType": "uint256",
          "name": "itemId",
          "type": "uint256"
        }
      ],
      "name": "createMarketSale",
      "outputs": [],
      "stateMutability": "payable",
      "type": "function"
    },
    {
      "inputs": [
        {
          "internalType": "address",
          "name": "nftContract",
          "type": "address"
        },
        {
          "internalType": "address",
          "name": "mytokenContract",
          "type": "address"
        },
        {
          "internalType": "uint256",
          "name": "itemId",
          "type": "uint256"
        },
        {
          "internalType": "uint256",
          "name": "msgValue",
          "type": "uint256"
        }
      ],
      "name": "createMarketSale_MyToken",
      "outputs": [],
      "stateMutability": "nonpayable",
      "type": "function"
    },
    {
      "inputs": [],
      "name": "fetchItemsCreated",
      "outputs": [
        {
          "components": [
            {
              "internalType": "uint256",
              "name": "itemId",
              "type": "uint256"
            },
            {
              "internalType": "address",
              "name": "nftContract",
              "type": "address"
            },
            {
              "internalType": "uint256",
              "name": "tokenId",
              "type": "uint256"
            },
            {
              "internalType": "address payable",
              "name": "seller",
              "type": "address"
            },
            {
              "internalType": "address payable",
              "name": "owner",
              "type": "address"
            },
            {
              "internalType": "uint256",
              "name": "price",
              "type": "uint256"
            },
            {
              "internalType": "bool",
              "name": "sold",
              "type": "bool"
            }
          ],
          "internalType": "struct NFTMarket.MarketItem[]",
          "name": "",
          "type": "tuple[]"
        }
      ],
      "stateMutability": "view",
      "type": "function"
    },
    {
      "inputs": [],
      "name": "fetchMarketItems",
      "outputs": [
        {
          "components": [
            {
              "internalType": "uint256",
              "name": "itemId",
              "type": "uint256"
            },
            {
              "internalType": "address",
              "name": "nftContract",
              "type": "address"
            },
            {
              "internalType": "uint256",
              "name": "tokenId",
              "type": "uint256"
            },
            {
              "internalType": "address payable",
              "name": "seller",
              "type": "address"
            },
            {
              "internalType": "address payable",
              "name": "owner",
              "type": "address"
            },
            {
              "internalType": "uint256",
              "name": "price",
              "type": "uint256"
            },
            {
              "internalType": "bool",
              "name": "sold",
              "type": "bool"
            }
          ],
          "internalType": "struct NFTMarket.MarketItem[]",
          "name": "",
          "type": "tuple[]"
        }
      ],
      "stateMutability": "view",
      "type": "function"
    },
    {
      "inputs": [],
      "name": "fetchMyNFTs",
      "outputs": [
        {
          "components": [
            {
              "internalType": "uint256",
              "name": "itemId",
              "type": "uint256"
            },
            {
              "internalType": "address",
              "name": "nftContract",
              "type": "address"
            },
            {
              "internalType": "uint256",
              "name": "tokenId",
              "type": "uint256"
            },
            {
              "internalType": "address payable",
              "name": "seller",
              "type": "address"
            },
            {
              "internalType": "address payable",
              "name": "owner",
              "type": "address"
            },
            {
              "internalType": "uint256",
              "name": "price",
              "type": "uint256"
            },
            {
              "internalType": "bool",
              "name": "sold",
              "type": "bool"
            }
          ],
          "internalType": "struct NFTMarket.MarketItem[]",
          "name": "",
          "type": "tuple[]"
        }
      ],
      "stateMutability": "view",
      "type": "function"
    },
    {
      "inputs": [],
      "name": "getListingPrice",
      "outputs": [
        {
          "internalType": "uint256",
          "name": "",
          "type": "uint256"
        }
      ],
      "stateMutability": "view",
      "type": "function"
    }
  ],
  "bytecode": "0x60806040526658d15e1762800060045534801561001b57600080fd5b506040516115e23803806115e283398101604081905261003a91610072565b600160005560038054336001600160a01b031991821617909155600580549091166001600160a01b03929092169190911790556100a0565b600060208284031215610083578081fd5b81516001600160a01b0381168114610099578182fd5b9392505050565b611533806100af6000396000f3fe6080604052600436106100705760003560e01c806324b659cf1161004e57806324b659cf146100d357806358eb2df5146100f5578063c23b139e14610108578063f064c32e1461011b57600080fd5b80630f08efe01461007557806312e85585146100a0578063202e3740146100be575b600080fd5b34801561008157600080fd5b5061008a610130565b604051610097919061135f565b60405180910390f35b3480156100ac57600080fd5b50600454604051908152602001610097565b3480156100ca57600080fd5b5061008a6102d8565b3480156100df57600080fd5b506100f36100ee366004611215565b6104be565b005b6100f361010336600461127f565b61091e565b6100f3610116366004611256565b610c71565b34801561012757600080fd5b5061008a610f2c565b6060600061013d60015490565b9050600061014a60025490565b60015461015791906114b5565b90506000808267ffffffffffffffff81111561018357634e487b7160e01b600052604160045260246000fd5b6040519080825280602002602001820160405280156101bc57816020015b6101a96111bd565b8152602001906001900390816101a15790505b50905060005b848110156102cf5760006006816101da84600161149d565b81526020810191909152604001600020600401546001600160a01b031614156102bd57600061020a82600161149d565b600081815260066020818152604092839020835160e0810185528154815260018201546001600160a01b039081169382019390935260028201549481019490945260038101548216606085015260048101549091166080840152600581015460a08401529081015460ff16151560c08301528551929350918590879081106102a257634e487b7160e01b600052603260045260246000fd5b60209081029190910101526102b860018661149d565b945050505b806102c7816114cc565b9150506101c2565b50949350505050565b606060006102e560015490565b905060008060005b8381101561034857336006600061030584600161149d565b81526020810191909152604001600020600401546001600160a01b031614156103365761033360018461149d565b92505b80610340816114cc565b9150506102ed565b5060008267ffffffffffffffff81111561037257634e487b7160e01b600052604160045260246000fd5b6040519080825280602002602001820160405280156103ab57816020015b6103986111bd565b8152602001906001900390816103905790505b50905060005b848110156102cf5733600660006103c984600161149d565b81526020810191909152604001600020600401546001600160a01b031614156104ac5760006103f982600161149d565b600081815260066020818152604092839020835160e0810185528154815260018201546001600160a01b039081169382019390935260028201549481019490945260038101548216606085015260048101549091166080840152600581015460a08401529081015460ff16151560c083015285519293509185908790811061049157634e487b7160e01b600052603260045260246000fd5b60209081029190910101526104a760018661149d565b945050505b806104b6816114cc565b9150506103b1565b600082815260066020526040902060058101546002909101548282146104ff5760405162461bcd60e51b81526004016104f69061143f565b60405180910390fd5b61053e6040518060400160405280601c81526020017f6d61726b65742073616c652061646472657373206974656d69643a200000000081525085611112565b6040805180820182526014815273036b0b935b2ba1039b0b6329039b2b63632b91d160651b60208083019190915260008781526006909152919091206003015461059191906001600160a01b031661115b565b6105d06040518060400160405280601a81526020017f6d61726b65742073616c65206164647265737320746869733a200000000000008152503061115b565b61060f6040518060400160405280601c81526020017f6d61726b65742073616c6520616464726573732073656e6465723a20000000008152503361115b565b604080518082018252601a81527f6d61726b65742073616c652062616c616e636520746869733a20000000000000602082015290516370a0823160e01b81523060048201526106c391906001600160a01b038816906370a08231906024015b60206040518083038186803b15801561068657600080fd5b505afa15801561069a573d6000803e3d6000fd5b505050506040513d601f19601f820116820180604052508101906106be91906112d8565b611112565b604080518082018252601c81527f6d61726b65742073616c652062616c616e63652073656e6465723a2000000000602082015290516370a0823160e01b815233600482015261072691906001600160a01b038816906370a082319060240161066e565b604080518082018252601c81527f6d61726b65742073616c652062616c616e63652073656c6c65723a2000000000602080830191909152600087815260069091528290206003015491516370a0823160e01b81526001600160a01b03928316600482015261079f928816906370a082319060240161066e565b6040516323b872dd60e01b81526001600160a01b038716906323b872dd906107cf9030903390869060040161133b565b600060405180830381600087803b1580156107e957600080fd5b505af11580156107fd573d6000803e3d6000fd5b505050600085815260066020526040908190206003015490516323b872dd60e01b81526001600160a01b0388811693506323b872dd9261084792339290911690879060040161133b565b602060405180830381600087803b15801561086157600080fd5b505af1158015610875573d6000803e3d6000fd5b505050506040513d601f19601f8201168201806040525081019061089991906112b1565b5060008481526006602081905260409091206004810180546001600160a01b0319163317905501805460ff191660011790556108d9600280546001019055565b6003546004546040516001600160a01b039092169181156108fc0291906000818181858888f19350505050158015610915573d6000803e3d6000fd5b50505050505050565b600260005414156109715760405162461bcd60e51b815260206004820152601f60248201527f5265656e7472616e637947756172643a207265656e7472616e742063616c6c0060448201526064016104f6565b6002600055806109c35760405162461bcd60e51b815260206004820152601c60248201527f5072696365206d757374206265206174206c656173742031207765690000000060448201526064016104f6565b6004543414610a205760405162461bcd60e51b8152602060048201526024808201527f5072696365206d75737420626520657175616c20746f206c697374696e6720706044820152637269636560e01b60648201526084016104f6565b610a2e600180546001019055565b6000610a3960015490565b9050610a6c6040518060400160405280600f81526020016e026b0b935b2ba1034ba32b6a4b21d1608d1b81525082611112565b6040805160e0810182528281526001600160a01b038681166020808401918252838501888152336060860181815260006080880181815260a089018c815260c08a018381528c84526006808952938c90209a518b55975160018b0180546001600160a01b0319908116928c16929092179055955160028b0155925160038a0180548716918a169190911790555160048901805490951697169690961790925590516005860155915193909201805460ff1916931515939093179092558251808401909352600f83526e036b0b935b2ba1039b2b63632b91d1608d1b90830152610b55919061115b565b610b866040518060400160405280600e81526020016d036b0b935b2ba1037bbb732b91d160951b815250600061115b565b610bad60405180604001604052806005815260200164707269636560d81b81525083611112565b6040516323b872dd60e01b81526001600160a01b038516906323b872dd90610bdd9033903090889060040161133b565b600060405180830381600087803b158015610bf757600080fd5b505af1158015610c0b573d6000803e3d6000fd5b505060408051338152600060208201819052818301879052606082015290518693506001600160a01b038816925084917f045dfa01dcba2b36aba1d3dc4a874f4b0c5d2fbeb8d2c4b34a7d88c8d8f929d1919081900360800190a4505060016000555050565b60026000541415610cc45760405162461bcd60e51b815260206004820152601f60248201527f5265656e7472616e637947756172643a207265656e7472616e742063616c6c0060448201526064016104f6565b600260008181558281526006602052604090206005810154910154348214610cfe5760405162461bcd60e51b81526004016104f69061143f565b610d3d6040518060400160405280601c81526020017f6d61726b65742073616c652061646472657373206974656d69643a200000000081525084611112565b6040805180820182526014815273036b0b935b2ba1039b0b6329039b2b63632b91d160651b602080830191909152600086815260069091529190912060030154610d9091906001600160a01b031661115b565b610dcf6040518060400160405280601a81526020017f6d61726b65742073616c65206164647265737320746869733a200000000000008152503061115b565b610e0e6040518060400160405280601c81526020017f6d61726b65742073616c6520616464726573732073656e6465723a20000000008152503361115b565b610e4360405180604001604052806013815260200172036b0b935b2ba1039b0b632903b30b63ab29d1606d1b81525034611112565b6040516323b872dd60e01b81526001600160a01b038516906323b872dd90610e739030903390869060040161133b565b600060405180830381600087803b158015610e8d57600080fd5b505af1158015610ea1573d6000803e3d6000fd5b50505060008481526006602081905260409091206004810180546001600160a01b0319163317905501805460ff1916600117905550610ee4600280546001019055565b6003546004546040516001600160a01b039092169181156108fc0291906000818181858888f19350505050158015610f20573d6000803e3d6000fd5b50506001600055505050565b60606000610f3960015490565b905060008060005b83811015610f9c573360066000610f5984600161149d565b81526020810191909152604001600020600301546001600160a01b03161415610f8a57610f8760018461149d565b92505b80610f94816114cc565b915050610f41565b5060008267ffffffffffffffff811115610fc657634e487b7160e01b600052604160045260246000fd5b604051908082528060200260200182016040528015610fff57816020015b610fec6111bd565b815260200190600190039081610fe45790505b50905060005b848110156102cf57336006600061101d84600161149d565b81526020810191909152604001600020600301546001600160a01b0316141561110057600061104d82600161149d565b600081815260066020818152604092839020835160e0810185528154815260018201546001600160a01b039081169382019390935260028201549481019490945260038101548216606085015260048101549091166080840152600581015460a08401529081015460ff16151560c08301528551929350918590879081106110e557634e487b7160e01b600052603260045260246000fd5b60209081029190910101526110fb60018661149d565b945050505b8061110a816114cc565b915050611005565b611157828260405160240161112892919061141d565b60408051601f198184030181529190526020810180516001600160e01b03166309710a9d60e41b17905261119c565b5050565b61115782826040516024016111719291906113f3565b60408051601f198184030181529190526020810180516001600160e01b031663319af33360e01b1790525b80516a636f6e736f6c652e6c6f67602083016000808483855afa5050505050565b6040805160e081018252600080825260208201819052918101829052606081018290526080810182905260a0810182905260c081019190915290565b80356001600160a01b038116811461121057600080fd5b919050565b6000806000806080858703121561122a578384fd5b611233856111f9565b9350611241602086016111f9565b93969395505050506040820135916060013590565b60008060408385031215611268578182fd5b611271836111f9565b946020939093013593505050565b600080600060608486031215611293578283fd5b61129c846111f9565b95602085013595506040909401359392505050565b6000602082840312156112c2578081fd5b815180151581146112d1578182fd5b9392505050565b6000602082840312156112e9578081fd5b5051919050565b60008151808452815b81811015611315576020818501810151868301820152016112f9565b818111156113265782602083870101525b50601f01601f19169290920160200192915050565b6001600160a01b039384168152919092166020820152604081019190915260600190565b602080825282518282018190526000919060409081850190868401855b828110156113e657815180518552868101516001600160a01b039081168887015286820151878701526060808301518216908701526080808301519091169086015260a0808201519086015260c09081015115159085015260e0909301929085019060010161137c565b5091979650505050505050565b60408152600061140660408301856112f0565b905060018060a01b03831660208301529392505050565b60408152600061143060408301856112f0565b90508260208301529392505050565b602080825260409082018190527f506c65617365207375626d6974207468652061736b696e672070726963652069908201527f6e206f7264657220746f20636f6d706c65746520746865207075726368617365606082015260800190565b600082198211156114b0576114b06114e7565b500190565b6000828210156114c7576114c76114e7565b500390565b60006000198214156114e0576114e06114e7565b5060010190565b634e487b7160e01b600052601160045260246000fdfea26469706673582212205699891ec96aec97601371aea899908e1e2b75508350b54e988f6b7a4f0e41a564736f6c63430008040033",
  "linkReferences": {},
  "deployedLinkReferences": {}
}